:100000002BC045C044C043C042C041C040C03FC0F7
:100010003EC03DC03CC0BBC23AC039C038C0B8C306
:1000200000C300003900360000003A00370000002D
:100030003B0038000101010101010101020202023D
:1000400001020408102040800402010800000000A2
:10005000000403020100000011241FBECFE5D2E01E
:10006000DEBFCDBF10E0A0E6B0E0EEEEFAE002C0E9
:1000700005900D92A236B107D9F720E0A2E6B0E0D4
:1000800001C01D92A43BB207E1F7C9D32EC5B8CF7A
:100090002091B1009091B0002F5F921B9F7091F062
:1000A0009091B1009F5F9F702091B0009217E1F393
:1000B000E92FF0E0EE58FF4F80839093B10081E08C
:1000C00090E0089590E080E008958091B300882347
:1000D00029F09091B200891B990B08959091AF007F
:1000E0008091AE00891B8F7090E00895EEDF892B20
:1000F00011F18091B300882361F02091B200E22FCA
:10010000F0E0EE59FF4F808190E02F5F2093B20026
:1001100008959091AF008091AE009817E1F3E091BF
:10012000AF00EF5FEF70E093AF00F0E0EE59FF4FEC
:10013000808190E008958FEF9FEF0895813021F442
:1001400080B78F7780BF0895823019F480B78F7D94
:10015000F9CF833021F48FB58F778FBD0895843028
:10016000E9F78FB58F7DF9CF1F93CF93DF93282FBA
:1001700030E0F901E45BFF4F8491F901E05CFF4F4F
:10018000D491F901EC5CFF4FC491CC23A1F0162F60
:100190008111D4DFEC2FF0E0EE0FFF1FE25DFF4F87
:1001A000A591B4918FB711110AC0F894EC91D09534
:1001B000DE23DC938FBFDF91CF911F910895F894D8
:1001C000EC91DE2BF6CFCF93DF9387FD8F7790E016
:1001D000FC01E05CFF4F24918C5C9F4FFC018491FB
:1001E0008823D1F090E0880F991FFC01E85DFF4F54
:1001F000A591B491FC01E25DFF4FC591D4916230AD
:1002000071F49FB7F8943C91822F809583238C934F
:10021000E8812E2B28839FBFDF91CF9108958FB760
:10022000F894EC912E2B2C938FBFF6CF1092AF0049
:100230001092AE001092B0001092B100809387002F
:100240001092860010928500109284001092830014
:10025000DC9ADE9AD49AD69888EA8DB980EF8EB966
:10026000089580918200893041F48091A60010DFCA
:10027000809182008F5F80938200809182008A301B
:1002800041F48091A70004DF809182008F5F80930A
:100290008200809182008B3041F48091A800F8DECA
:1002A000809182008F5F80938200809182008C30E9
:1002B00041F48091A900ECDE809182008F5F8093F1
:1002C000820080918200853041F480919200E0DECE
:1002D000809182008F5F80938200809182008630BF
:1002E00041F480919300D4DE809182008F5F8093EF
:1002F000820080918200873041F480919400C8DEB2
:10030000809182008F5F809382008091820088308C
:1003100031F480919500BCDE85E0809382000895E1
:10032000CF93DF93D498D6981DB880EF8EB9E3E5CC
:10033000F0E08491E7E4F0E0D491EBE3F0E0C491E5
:10034000CC2371F08111FADEEC2FF0E0EE0FFF1FED
:10035000EE5DFF4FA591B491EC91ED2389E011F48E
:100360008091600063DF82EC91E090938400809341
:10037000830081E391E09093860080938500DF9174
:10038000CF910895FF920F931F93CF93DF938FE048
:10039000F82ECFE09ADE892B09F4F3C0A7DE809314
:1003A000820080918200873CA9F48FDE892B91F333
:1003B0009DDE8093600080916000883058F38091CA
:1003C0006000883738F76091600081E090E047D3A3
:1003D000A7DFE0CF80918200813089F48091920084
:1003E000811105C061E0C0DEC0939200D3CF8F3091
:1003F00089F660E080E0B8DE10929200CBCF809169
:100400008200823099F480919300811106C061E0EE
:1004100081E0AADEC0939300BDCF8F3009F0BACF40
:1004200060E081E0A1DE10929300B4CF8091820061
:10043000833099F480919400811106C061E082E0DC
:1004400093DEC0939400A6CF8F3009F0A3CF60E075
:1004500082E08ADE109294009DCF809182008430E9
:1004600099F480919500811106C061E083E07CDE03
:10047000C09395008FCF8F3009F08CCF60E083E080
:1004800073DE1092950086CF80918200893041F40E
:100490001CDE892B09F47ECF29DE8093A6007ACF5B
:1004A000809182008A3041F410DE892B09F472CFEA
:1004B0001DDE8093A7006ECF809182008B3041F4C7
:1004C00004DE892B09F466CF11DE8093A80062CF89
:1004D000809182008C3041F4F8DD892B09F45ACFE9
:1004E00005DE8093A90056CF809182008A3099F46E
:1004F00060E080E039DE60E081E036DE60E082E0EE
:1005000033DE60E083E030DE1092920010929300C0
:1005100010929400B6CF809182008B3099F461E004
:1005200080E022DE61E081E01FDE61E082E01CDE2F
:1005300061E083E019DEC0939200C0939300C09302
:10054000940096CF809182008C3009F023CF02E98D
:1005500010E0D0E0F80180818F3059F460E08D2FF9
:1005600003DEF8011082DF5F0F5F1F4FD43091F779
:1005700011CF8111F8CF61E08D2FF6DDF801F08207
:10058000F2CFDF91CF911F910F91FF9008951F92AD
:100590000F920FB60F9211242F933F938F939F9337
:1005A000AF93BF9380918E0090918F00A0919000A7
:1005B000B091910030918D0026E0230F2D3768F126
:1005C00029E8230F0396A11DB11D20938D00809370
:1005D0008E0090938F00A0939000B0939100809133
:1005E000890090918A00A0918B00B0918C000196B7
:1005F000A11DB11D8093890090938A00A0938B0068
:10060000B0938C00BF91AF919F918F913F912F91AB
:100610000F900FBE0F901F9018950296A11DB11D4F
:10062000D4CF1F920F920FB60F9211242F933F93A6
:100630004F935F936F937F938F939F93AF93BF93EA
:10064000CF93EF93FF9380918800823009F474C0B8
:10065000B8F4882389F1813009F454C0FF91EF91F7
:10066000CF91BF91AF919F918F917F916F915F914A
:100670004F913F912F910F900FBE0F901F901895A3
:10068000843009F45FC0B8F1853041F784E080938D
:1006900088009FB18091AE008F5F8F702091AF0076
:1006A000281709F473C08093AE00E091AE00F0E02B
:1006B000EE59FF4F908319C08FB1882331F08FB16D
:1006C000869590918700891319C0789B12C0E0919C
:1006D0008500F0918600309729F08091B1008093D9
:1006E000B000099581E0809388001FB8D69A8EE704
:1006F00021C084E0F8CF8FB1882321F0D69888EA12
:100700008DB917C08091B0009091B1009817B1F3E6
:100710008091B0008F5F8F708093B000E091B00047
:10072000F0E0EE58FF4F80818FB982E0809388001F
:10073000D69A80E78EB992CF83E080938800D698CE
:100740001FB8D5CF85E080938800D69880E78EB912
:10075000E0918300F0918400309709F47FCFC0913D
:10076000AE008091AF008C1709F478CF8EB18E7AED
:10077000E9F3759B73CF9091AF008091AE00891B18
:100780008F7090E00995C093AF0068CFD698AFCF37
:100790001F920F920FB60F9211242F933F934F93F6
:1007A0005F936F937F938F939F93AF93BF93CF93F9
:1007B000EF93FF93E0918300F0918400309781F0F4
:1007C000C091AE008091AF008C1751F09091AF00B6
:1007D0008091AE00891B8F7090E00995C093AF00A7
:1007E00010928800D698CC9B18C0CE9BFCCF88EA8C
:1007F0008DB980EF8EB9FF91EF91CF91BF91AF91FD
:100800009F918F917F916F915F914F913F912F9128
:100810000F900FBE0F901F90189588EFE9CF81B70A
:1008200081BF789480B7826080BF80B7816080BFCD
:1008300083B7887F836083BF789489B7816089BFDD
:100840008EB5887F8EBD8FB581608FBD8FB58D7F52
:100850008FBD8EB5877F8EBD8EB58F7E8EBD8EB5DA
:1008600083608EBD86B18877866886B9379A62E0E4
:1008700087E0A9DC62E08BE0A6DC61E080E0A3DC3D
:1008800061E081E0A0DC61E082E09DDC61E083E08A
:100890009ADC81E090E0DBD0809360008091600082
:1008A0008F3F41F488E0809360006091600081E0B8
:1008B00090E0D5D035DD2FE0722E38E7A32EB12C95
:1008C000809161008823A9F02FB7F89480918E0061
:1008D00090918F00A0919000B09191002FBF8093D4
:1008E000AA009093AB00A093AC00B093AD0010921F
:1008F000610086EAC82E80E0D82E96E9E92E90E0C5
:10090000F92E87014601D0E0C0E0F40161904F016B
:10091000662061F1F80180819181A281B381892BE8
:100920008A2B8B2B19F561E08C2F1EDCFE01EE5615
:10093000FF4F7082862D90E068EE73E09ED0B50187
:10094000ADD0072E000C880B990B2091AA00309196
:10095000AB004091AC005091AD00620F731F841F3B
:10096000951FF801608371838283938321960C5FC6
:100970001F4FC430D10549F602E910E0C0E0F6018E
:1009800081916F018823D1F0F7014081518162810B
:1009900073812FB7F89480918E0090918F00A09171
:1009A0009000B09191002FBF481759076A077B0745
:1009B00028F460E08C2FD8DBF8011082CF5F0F5F46
:1009C0001F4FF4E0EF0EF11CC430C9F62FB7F894B6
:1009D00080918E0090918F00A0919000B091910035
:1009E0002FBF4091AA005091AB006091AC00709174
:1009F000AD00841B950BA60BB70B883E9340A10559
:100A0000B10508F45DCF81E08093610010929600FB
:100A100010929700109298001092990010929A00EC
:100A200010929B0010929C0010929D0010929E00CC
:100A300010929F001092A0001092A1001092A200AC
:100A40001092A3001092A4001092A50039CFE19952
:100A5000FECF9FBB8EBBE09A99278DB30895262FBA
:100A6000E199FECF1CBA9FBB8EBB2DBB0FB6F8948D
:100A7000E29AE19A0FBE019608950024552704C01A
:100A8000080E591F880F991F009729F076956795D2
:100A9000B8F37105B9F7802D952F089597FB072EB0
:100AA00016F4009406D077FD08D00BD007FC05D0D3
:100AB0003EF4909581959F4F0895709561957F4F75
:100AC0000895AA1BBB1B51E107C0AA1FBB1FA61795
:100AD000B70710F0A61BB70B881F991F5A95A9F7E7
:0E0AE00080959095BC01CD010895F894FFCF4C
:020AEE000801FD
:00000001FF
