:100000002BC045C044C043C042C041C040C03FC0F7
:100010003EC03DC03CC0BBC23AC039C038C0B8C306
:1000200000C300003900360000003A00370000002D
:100030003B0038000101010101010101020202023D
:1000400001020408102040800402010800000000A2
:10005000000403020100000011241FBECFE5D2E01E
:10006000DEBFCDBF10E0A0E6B0E0E8E3FFE002C0F5
:1000700005900D92A236B107D9F720E0A2E6B0E0D4
:1000800001C01D92A83BB207E1F7C9D353C7B8CF4F
:100090002091B5009091B4002F5F921B9F7091F05A
:1000A0009091B5009F5F9F702091B4009217E1F38B
:1000B000E92FF0E0EE58FF4F80839093B50081E088
:1000C00090E0089590E080E008958091B700882343
:1000D00029F09091B600891B990B08959091B30077
:1000E0008091B200891B8F7090E00895EEDF892B1C
:1000F00011F18091B700882361F02091B600E22FC2
:10010000F0E0EE59FF4F808190E02F5F2093B60022
:1001100008959091B3008091B2009817E1F3E091B7
:10012000B300EF5FEF70E093B300F0E0EE59FF4FE4
:10013000808190E008958FEF9FEF0895813021F442
:1001400080B78F7780BF0895823019F480B78F7D94
:10015000F9CF833021F48FB58F778FBD0895843028
:10016000E9F78FB58F7DF9CF1F93CF93DF93282FBA
:1001700030E0F901E45BFF4F8491F901E05CFF4F4F
:10018000D491F901EC5CFF4FC491CC23A1F0162F60
:100190008111D4DFEC2FF0E0EE0FFF1FE25DFF4F87
:1001A000A591B4918FB711110AC0F894EC91D09534
:1001B000DE23DC938FBFDF91CF911F910895F894D8
:1001C000EC91DE2BF6CFCF93DF9387FD8F7790E016
:1001D000FC01E05CFF4F24918C5C9F4FFC018491FB
:1001E0008823D1F090E0880F991FFC01E85DFF4F54
:1001F000A591B491FC01E25DFF4FC591D4916230AD
:1002000071F49FB7F8943C91822F809583238C934F
:10021000E8812E2B28839FBFDF91CF9108958FB760
:10022000F894EC912E2B2C938FBFF6CF1092B30045
:100230001092B2001092B4001092B5008093870023
:100240001092860010928500109284001092830014
:10025000DC9ADE9AD49AD69888EA8DB980EF8EB966
:10026000089580918200853041F48091960010DFDE
:10027000809182008F5F809382008091820086301F
:1002800041F48091970004DF809182008F5F80931A
:10029000820080918200873041F480919800F8DEDE
:1002A000809182008F5F80938200809182008830ED
:1002B00041F480919900ECDE809182008F5F809301
:1002C000820080918200803141F48091AE00E0DEB6
:1002D000809182008F5F80938200809182008131C3
:1002E00041F48091AF00D4DE809182008F5F8093D3
:1002F000820080918200823141F48091B000C8DE9A
:10030000809182008F5F8093820080918200833190
:1003100031F48091B100BCDE85E0809382000895C5
:10032000CF93DF93D498D6981DB880EF8EB9E3E5CC
:10033000F0E08491E7E4F0E0D491EBE3F0E0C491E5
:10034000CC2371F08111FADEEC2FF0E0EE0FFF1FED
:10035000EE5DFF4FA591B491EC91ED2389E011F48E
:100360008091600063DF82EC91E090938400809341
:10037000830081E391E09093860080938500DF9174
:10038000CF910895FF920F931F93CF93DF938FE048
:10039000F82ECFE09ADE892B09F4F3C0A7DE809314
:1003A000820080918200873CA9F48FDE892B91F333
:1003B0009DDE8093600080916000883058F38091CA
:1003C0006000883738F76091600081E090E079D371
:1003D000A7DFE0CF80918200813089F48091960080
:1003E000811105C061E0C0DEC0939600D3CF8F308D
:1003F00089F660E080E0B8DE10929600CBCF809165
:100400008200823099F480919700811106C061E0EA
:1004100081E0AADEC0939700BDCF8F3009F0BACF3C
:1004200060E081E0A1DE10929700B4CF809182005D
:10043000833099F480919800811106C061E082E0D8
:1004400093DEC0939800A6CF8F3009F0A3CF60E071
:1004500082E08ADE109298009DCF809182008430E5
:1004600099F480919900811106C061E083E07CDEFF
:10047000C09399008FCF8F3009F08CCF60E083E07C
:1004800073DE1092990086CF80918200803141F412
:100490001CDE892B09F47ECF29DE8093AE007ACF53
:1004A00080918200813141F410DE892B09F472CFF2
:1004B0001DDE8093AF006ECF80918200823141F4C7
:1004C00004DE892B09F466CF11DE8093B00062CF81
:1004D00080918200833141F4F8DD892B09F45ACFF1
:1004E00005DE8093B10056CF809182008A3099F466
:1004F00060E080E039DE60E081E036DE60E082E0EE
:1005000033DE60E083E030DE1092960010929700B8
:1005100010929800B6CF809182008B3099F461E000
:1005200080E022DE61E081E01FDE61E082E01CDE2F
:1005300061E083E019DEC0939600C0939700C093FA
:10054000980096CF809182008C3009F023CF06E985
:1005500010E0D0E0F80180818F3059F460E08D2FF9
:1005600003DEF8011082DF5F0F5F1F4FD43091F779
:1005700011CF8111F8CF61E08D2FF6DDF801F08207
:10058000F2CFDF91CF911F910F91FF9008951F92AD
:100590000F920FB60F9211242F933F938F939F9337
:1005A000AF93BF9380918E0090918F00A0919000A7
:1005B000B091910030918D0026E0230F2D3768F126
:1005C00029E8230F0396A11DB11D20938D00809370
:1005D0008E0090938F00A0939000B0939100809133
:1005E000890090918A00A0918B00B0918C000196B7
:1005F000A11DB11D8093890090938A00A0938B0068
:10060000B0938C00BF91AF919F918F913F912F91AB
:100610000F900FBE0F901F9018950296A11DB11D4F
:10062000D4CF1F920F920FB60F9211242F933F93A6
:100630004F935F936F937F938F939F93AF93BF93EA
:10064000CF93EF93FF9380918800823009F474C0B8
:10065000B8F4882389F1813009F454C0FF91EF91F7
:10066000CF91BF91AF919F918F917F916F915F914A
:100670004F913F912F910F900FBE0F901F901895A3
:10068000843009F45FC0B8F1853041F784E080938D
:1006900088009FB18091B2008F5F8F702091B3006E
:1006A000281709F473C08093B200E091B200F0E023
:1006B000EE59FF4F908319C08FB1882331F08FB16D
:1006C000869590918700891319C0789B12C0E0919C
:1006D0008500F0918600309729F08091B5008093D5
:1006E000B400099581E0809388001FB8D69A8EE700
:1006F00021C084E0F8CF8FB1882321F0D69888EA12
:100700008DB917C08091B4009091B5009817B1F3DE
:100710008091B4008F5F8F708093B400E091B4003B
:10072000F0E0EE58FF4F80818FB982E0809388001F
:10073000D69A80E78EB992CF83E080938800D698CE
:100740001FB8D5CF85E080938800D69880E78EB912
:10075000E0918300F0918400309709F47FCFC0913D
:10076000B2008091B3008C1709F478CF8EB18E7AE5
:10077000E9F3759B73CF9091B3008091B200891B10
:100780008F7090E00995C093B30068CFD698AFCF33
:100790001F920F920FB60F9211242F933F934F93F6
:1007A0005F936F937F938F939F93AF93BF93CF93F9
:1007B000EF93FF93E0918300F0918400309781F0F4
:1007C000C091B2008091B3008C1751F09091B300AA
:1007D0008091B200891B8F7090E00995C093B3009F
:1007E00010928800D698CC9B18C0CE9BFCCF88EA8C
:1007F0008DB980EF8EB9FF91EF91CF91BF91AF91FD
:100800009F918F917F916F915F914F913F912F9128
:100810000F900FBE0F901F90189588EFE9CF81B70A
:1008200081BF789480B7826080BF80B7816080BFCD
:1008300083B7887F836083BF789489B7816089BFDD
:100840008EB5887F8EBD8FB581608FBD8FB58D7F52
:100850008FBD8EB5877F8EBD8EB58F7E8EBD8EB5DA
:1008600083608EBD86B18877866886B9379A62E0E4
:1008700087E0A9DC62E08BE0A6DC61E080E0A3DC3D
:1008800061E081E0A0DC61E082E09DDC61E083E08A
:100890009ADC81E090E00DD180936000809160004F
:1008A0008F3F41F488E0809360006091600081E0B8
:1008B00090E007D135DD2FE0B22E0EEA10E09EE980
:1008C000E92E90E0F92E6801D0E0C0E08C2FF6010F
:1008D00091916F01992309F450C0F7014081518132
:1008E00062817381452B462B472B09F046C09091BE
:1008F00061009923A9F09FB7F89440918E00509120
:100900008F0060919000709191009FBF40939A007A
:1009100050939B0060939C0070939D001092610027
:1009200061E022DCFE01EA56FF4FB082F60131970A
:10093000808190E068EE73E0ECD2BC01990F880BE7
:10094000990BCCD120E030E040EF52E431D12B01C3
:100950003C0160919A0070919B0080919C00909165
:100960009D00BAD19B01AC01C301B201B9D088D1BD
:10097000F70160837183828393832196F4E0EF0E05
:10098000F11CC430D10509F0A1CF8FB7F894C09005
:100990008E00D0908F00E0909000F09091008FBF7B
:1009A00080919A0090919B00A0919C00B0919D0035
:1009B000C81AD90AEA0AFB0AC0929200D0929300A0
:1009C000E0929400F092950086E9882E80E0982EBF
:1009D000C0E0F80161918F0170E090E080E07ED18D
:1009E00025E535E545E051E429D22B013C01C7015D
:1009F000B60172D19B01AC01C301B201D5D087FF12
:100A000009C080916100811105C060E08C2FACDBD2
:100A1000F4011082CF5FFFEF8F1A9F0AC430C9F62E
:100A20002FB7F89480918E0090918F00A091900044
:100A3000B09191002FBF40919A0050919B0060911E
:100A40009C0070919D00841B950BA60BB70B8093A7
:100A5000920090939300A0939400B0939500883EE9
:100A60009340A105B10508F428CF81E0809361008F
:100A700010929E0010929F001092A0001092A10070
:100A80001092A2001092A3001092A4001092A50050
:100A90001092A6001092A7001092A8001092A90030
:100AA0001092AA001092AB001092AC001092AD0010
:100AB00004CFE199FECF9FBB8EBBE09A99278DB3FF
:100AC0000895262FE199FECF1CBA9FBB8EBB2DBB8C
:100AD0000FB6F894E29AE19A0FBE01960895505825
:100AE000BB27AA270ED070C161D130F066D120F0AB
:100AF00031F49F3F11F41EF456C10EF4E095E7FB6C
:100B00004CC1E92F72D180F3BA17620773078407CB
:100B1000950718F071F49EF58AC10EF4E0950B2E3E
:100B2000BA2FA02D0B01B90190010C01CA01A0013F
:100B30001124FF27591B99F0593F50F4503E68F19A
:100B40001A16F040A22F232F342F4427585FF3CFDB
:100B5000469537952795A795F0405395C9F77EF4AC
:100B60001F16BA0B620B730B840BBAF09150A1F0F5
:100B7000FF0FBB1F661F771F881FC2F70EC0BA0F7B
:100B8000621F731F841F48F4879577956795B79503
:100B9000F7959E3F08F0B3CF9395880F08F09927FB
:100BA000EE0F979587950895D4D008F481E00895C5
:100BB0000CD00AC102D140F0F9D030F021F45F3FEF
:100BC00019F0EBC0511134C1EEC00FD198F3992345
:100BD000C9F35523B1F3951B550BBB27AA27621701
:100BE0007307840738F09F5F5F4F220F331F441F46
:100BF000AA1FA9F333D00E2E3AF0E0E830D091507E
:100C00005040E695001CCAF729D0FE2F27D0660F6A
:100C1000771F881FBB1F261737074807AB07B0E8A9
:100C200009F0BB0B802DBF01FF2793585F4F2AF0BF
:100C30009E3F510568F0B1C0FBC05F3FECF3983EAA
:100C4000DCF3869577956795B795F7959F5FC9F71C
:100C5000880F911D9695879597F90895E1E0660FA5
:100C6000771F881FBB1F621773078407BA0720F01E
:100C7000621B730B840BBA0BEE1F88F7E095089587
:100C8000BCD088F09F5790F0B92F9927B751A0F0AA
:100C9000D1F0660F771F881F991F1AF0BA95C9F710
:100CA00012C0B13081F0C3D0B1E00895C0C0672F49
:100CB000782F8827B85F39F0B93FCCF386957795C0
:100CC0006795B395D9F73EF49095809570956195A9
:100CD0007F4F8F4F9F4F0895E89409C097FB3EF4D4
:100CE00090958095709561957F4F8F4F9F4F992379
:100CF000A9F0F92F96E9BB279395F69587957795F7
:100D00006795B795F111F8CFFAF4BB0F11F460FFB6
:100D10001BC06F5F7F4F8F4F9F4F16C0882311F00E
:100D200096E911C0772321F09EE8872F762F05C022
:100D3000662371F096E8862F70E060E02AF09A95BD
:100D4000660F771F881FDAF7880F9695879597F9B2
:100D50000895990F0008550FAA0BE0E8FEEF16164C
:100D60001706E807F907C0F012161306E407F5079F
:100D700098F0621B730B840B950B39F40A2661F013
:100D8000232B242B252B21F408950A2609F4A140B6
:100D9000A6958FEF811D811D089597F99F6780E8C3
:100DA00070E060E008959FEF80EC089500240A94BD
:100DB0001616170618060906089500240A94121636
:100DC0001306140605060895092E0394000C11F469
:100DD000882352F0BB0F40F4BF2B11F460FF04C016
:100DE0006F5F7F4F8F4F9F4F089557FD9058440F6F
:100DF000551F59F05F3F71F04795880F97FB991F7A
:100E000061F09F3F79F08795089512161306140636
:100E1000551FF2CF4695F1DF08C0161617061806C3
:100E2000991FF1CF86957105610508940895E8949E
:100E3000BB2766277727CB0197F908950AD0C4CF3F
:100E4000B5DF28F0BADF18F0952309F0A6CFABCFB5
:100E5000EFCFCBDFA8F39923D9F35523C9F3950F2F
:100E600050E0551FAA27EE27FF27BB270024089430
:100E7000679520F4E20FF31FB41F0A1E220F331FE1
:100E8000441FAA1F6695A9F7779530F4F30FB41F96
:100E90000A1E121E08F46395330F441FAA1F221F57
:100EA000769599F7879520F4B40F0A1E121E631FDA
:100EB000440FAA1F221F331F8695A9F7862F712D75
:100EC000602D11249F5750408AF0E1F088234AF0AA
:100ED000EE0FFF1FBB1F661F771F881F91505040EA
:100EE000A9F79E3F510570F058CFA2CF5F3FECF3BA
:100EF000983EDCF3869577956795B795F795E795D6
:100F00009F5FC1F7FE2B880F911D9695879597F9E6
:100F100008950024552704C0080E591F880F991FF3
:100F2000009729F076956795B8F37105B9F7802D8C
:080F3000952F0895F894FFCFFE
:020F38000801AE
:00000001FF
